{
  "contractName": "Info",
  "abi": [
    {
      "inputs": [
        {
          "internalType": "string",
          "name": "_name",
          "type": "string"
        }
      ],
      "name": "setName",
      "outputs": [],
      "stateMutability": "nonpayable",
      "type": "function"
    },
    {
      "inputs": [
        {
          "internalType": "string",
          "name": "_addres",
          "type": "string"
        }
      ],
      "name": "setAddres",
      "outputs": [],
      "stateMutability": "nonpayable",
      "type": "function"
    },
    {
      "inputs": [
        {
          "internalType": "uint256",
          "name": "_phone",
          "type": "uint256"
        }
      ],
      "name": "setPhone",
      "outputs": [],
      "stateMutability": "nonpayable",
      "type": "function"
    },
    {
      "inputs": [],
      "name": "getName",
      "outputs": [
        {
          "internalType": "string",
          "name": "",
          "type": "string"
        }
      ],
      "stateMutability": "view",
      "type": "function",
      "constant": true
    },
    {
      "inputs": [],
      "name": "getAddres",
      "outputs": [
        {
          "internalType": "string",
          "name": "",
          "type": "string"
        }
      ],
      "stateMutability": "view",
      "type": "function",
      "constant": true
    },
    {
      "inputs": [],
      "name": "getphone",
      "outputs": [
        {
          "internalType": "uint256",
          "name": "",
          "type": "uint256"
        }
      ],
      "stateMutability": "view",
      "type": "function",
      "constant": true
    }
  ],
  "bytecode": "0x608060405234801561001057600080fd5b50610867806100206000396000f3fe608060405234801561001057600080fd5b50600436106100625760003560e01c80630c5f784d1461006757806317d7de7c146100855780633e4848e7146100a3578063c47f0027146100bf578063d7f39793146100db578063e211552d146100f9575b600080fd5b61006f610115565b60405161007c919061029b565b60405180910390f35b61008d610121565b60405161009a9190610346565b60405180910390f35b6100bd60048036038101906100b891906104b1565b6101b5565b005b6100d960048036038101906100d491906104b1565b6101cb565b005b6100e36101e0565b6040516100f09190610346565b60405180910390f35b610113600480360381019061010e9190610526565b610275565b005b60008060020154905090565b606060008001805461013290610582565b80601f016020809104026020016040519081016040528092919081815260200182805461015e90610582565b80156101ab5780601f10610180576101008083540402835291602001916101ab565b820191906000526020600020905b81548152906001019060200180831161018e57829003601f168201915b5050505050905090565b80600060010190816101c7919061075f565b5050565b806000800190816101dc919061075f565b5050565b6060600060010180546101f290610582565b80601f016020809104026020016040519081016040528092919081815260200182805461021e90610582565b801561026b5780601f106102405761010080835404028352916020019161026b565b820191906000526020600020905b81548152906001019060200180831161024e57829003601f168201915b5050505050905090565b8060006002018190555050565b6000819050919050565b61029581610282565b82525050565b60006020820190506102b0600083018461028c565b92915050565b600081519050919050565b600082825260208201905092915050565b60005b838110156102f05780820151818401526020810190506102d5565b60008484015250505050565b6000601f19601f8301169050919050565b6000610318826102b6565b61032281856102c1565b93506103328185602086016102d2565b61033b816102fc565b840191505092915050565b60006020820190508181036000830152610360818461030d565b905092915050565b6000604051905090565b600080fd5b600080fd5b600080fd5b600080fd5b7f4e487b7100000000000000000000000000000000000000000000000000000000600052604160045260246000fd5b6103be826102fc565b810181811067ffffffffffffffff821117156103dd576103dc610386565b5b80604052505050565b60006103f0610368565b90506103fc82826103b5565b919050565b600067ffffffffffffffff82111561041c5761041b610386565b5b610425826102fc565b9050602081019050919050565b82818337600083830152505050565b600061045461044f84610401565b6103e6565b9050828152602081018484840111156104705761046f610381565b5b61047b848285610432565b509392505050565b600082601f8301126104985761049761037c565b5b81356104a8848260208601610441565b91505092915050565b6000602082840312156104c7576104c6610372565b5b600082013567ffffffffffffffff8111156104e5576104e4610377565b5b6104f184828501610483565b91505092915050565b61050381610282565b811461050e57600080fd5b50565b600081359050610520816104fa565b92915050565b60006020828403121561053c5761053b610372565b5b600061054a84828501610511565b91505092915050565b7f4e487b7100000000000000000000000000000000000000000000000000000000600052602260045260246000fd5b6000600282049050600182168061059a57607f821691505b6020821081036105ad576105ac610553565b5b50919050565b60008190508160005260206000209050919050565b60006020601f8301049050919050565b600082821b905092915050565b6000600883026106157fffffffffffffffffffffffffffffffffffffffffffffffffffffffffffffffff826105d8565b61061f86836105d8565b95508019841693508086168417925050509392505050565b6000819050919050565b600061065c61065761065284610282565b610637565b610282565b9050919050565b6000819050919050565b61067683610641565b61068a61068282610663565b8484546105e5565b825550505050565b600090565b61069f610692565b6106aa81848461066d565b505050565b5b818110156106ce576106c3600082610697565b6001810190506106b0565b5050565b601f821115610713576106e4816105b3565b6106ed846105c8565b810160208510156106fc578190505b610710610708856105c8565b8301826106af565b50505b505050565b600082821c905092915050565b600061073660001984600802610718565b1980831691505092915050565b600061074f8383610725565b9150826002028217905092915050565b610768826102b6565b67ffffffffffffffff81111561078157610780610386565b5b61078b8254610582565b6107968282856106d2565b600060209050601f8311600181146107c957600084156107b7578287015190505b6107c18582610743565b865550610829565b601f1984166107d7866105b3565b60005b828110156107ff578489015182556001820191506020850194506020810190506107da565b8683101561081c5784890151610818601f891682610725565b8355505b6001600288020188555050505b50505050505056fea264697066735822122026c3ec06d4ef1e92e46c2d664ddb7f2d575780943623ed238d4e669e261730e064736f6c63430008110033",
  "immutableReferences": {},
  "source": "// SPDX-License-Identifier: MIT\npragma solidity >=0.4.22 <0.9.0;\n\ncontract Info {\n  struct Infor {\n      string name;\n      string addres;\n      uint256 phone;\n  }\n  Infor info;\n   function setName(string memory _name) public {   \n          info.name=_name;\n         }\n          function setAddres(string memory _addres) public {   \n          info.addres=_addres;\n         }\n          function setPhone(uint256 _phone) public {   \n          info.phone=_phone;\n         }\n    function getName()public view returns(string memory){\n      return info.name; \n         }\n    function getAddres()public view returns(string memory){\n      return info.addres; \n         }\n    function getphone()public view returns(uint256){\n      return info.phone;\n         }\n}\n",
  "sourcePath": "E:\\setName\\set-getName\\blockchain\\contracts\\Info.sol",
  "compiler": {
    "name": "solc",
    "version": "0.8.17+commit.8df45f5f.Emscripten.clang"
  },
  "schemaVersion": "3.4.10",
  "updatedAt": "2022-09-29T09:27:44.952Z",
  "networkType": "ethereum",
  "devdoc": {
    "kind": "dev",
    "methods": {},
    "version": 1
  },
  "userdoc": {
    "kind": "user",
    "methods": {},
    "version": 1
  }
}