{
  "contractName": "SmartContract",
  "abi": [
    {
      "inputs": [
        {
          "internalType": "string",
          "name": "_name",
          "type": "string"
        },
        {
          "internalType": "string",
          "name": "_addres",
          "type": "string"
        },
        {
          "internalType": "uint256",
          "name": "_phone",
          "type": "uint256"
        }
      ],
      "name": "setName",
      "outputs": [],
      "stateMutability": "nonpayable",
      "type": "function"
    },
    {
      "inputs": [],
      "name": "getName",
      "outputs": [
        {
          "internalType": "string",
          "name": "",
          "type": "string"
        }
      ],
      "stateMutability": "view",
      "type": "function",
      "constant": true
    },
    {
      "inputs": [],
      "name": "getAddres",
      "outputs": [
        {
          "internalType": "string",
          "name": "",
          "type": "string"
        }
      ],
      "stateMutability": "view",
      "type": "function",
      "constant": true
    },
    {
      "inputs": [],
      "name": "getphone",
      "outputs": [
        {
          "internalType": "uint256",
          "name": "",
          "type": "uint256"
        }
      ],
      "stateMutability": "view",
      "type": "function",
      "constant": true
    }
  ],
  "bytecode": "0x608060405234801561001057600080fd5b5061082a806100206000396000f3fe608060405234801561001057600080fd5b506004361061004c5760003560e01c80630c5f784d1461005157806317d7de7c1461006f5780636bc285c01461008d578063d7f39793146100a9575b600080fd5b6100596100c7565b6040516100669190610249565b60405180910390f35b6100776100d3565b60405161008491906102f4565b60405180910390f35b6100a760048036038101906100a2919061048b565b610167565b005b6100b161019b565b6040516100be91906102f4565b60405180910390f35b60008060020154905090565b60606000800180546100e490610545565b80601f016020809104026020016040519081016040528092919081815260200182805461011090610545565b801561015d5780601f106101325761010080835404028352916020019161015d565b820191906000526020600020905b81548152906001019060200180831161014057829003601f168201915b5050505050905090565b826000800190816101789190610722565b50816000600101908161018b9190610722565b5080600060020181905550505050565b6060600060010180546101ad90610545565b80601f01602080910402602001604051908101604052809291908181526020018280546101d990610545565b80156102265780601f106101fb57610100808354040283529160200191610226565b820191906000526020600020905b81548152906001019060200180831161020957829003601f168201915b5050505050905090565b6000819050919050565b61024381610230565b82525050565b600060208201905061025e600083018461023a565b92915050565b600081519050919050565b600082825260208201905092915050565b60005b8381101561029e578082015181840152602081019050610283565b60008484015250505050565b6000601f19601f8301169050919050565b60006102c682610264565b6102d0818561026f565b93506102e0818560208601610280565b6102e9816102aa565b840191505092915050565b6000602082019050818103600083015261030e81846102bb565b905092915050565b6000604051905090565b600080fd5b600080fd5b600080fd5b600080fd5b7f4e487b7100000000000000000000000000000000000000000000000000000000600052604160045260246000fd5b61036c826102aa565b810181811067ffffffffffffffff8211171561038b5761038a610334565b5b80604052505050565b600061039e610316565b90506103aa8282610363565b919050565b600067ffffffffffffffff8211156103ca576103c9610334565b5b6103d3826102aa565b9050602081019050919050565b82818337600083830152505050565b60006104026103fd846103af565b610394565b90508281526020810184848401111561041e5761041d61032f565b5b6104298482856103e0565b509392505050565b600082601f8301126104465761044561032a565b5b81356104568482602086016103ef565b91505092915050565b61046881610230565b811461047357600080fd5b50565b6000813590506104858161045f565b92915050565b6000806000606084860312156104a4576104a3610320565b5b600084013567ffffffffffffffff8111156104c2576104c1610325565b5b6104ce86828701610431565b935050602084013567ffffffffffffffff8111156104ef576104ee610325565b5b6104fb86828701610431565b925050604061050c86828701610476565b9150509250925092565b7f4e487b7100000000000000000000000000000000000000000000000000000000600052602260045260246000fd5b6000600282049050600182168061055d57607f821691505b6020821081036105705761056f610516565b5b50919050565b60008190508160005260206000209050919050565b60006020601f8301049050919050565b600082821b905092915050565b6000600883026105d87fffffffffffffffffffffffffffffffffffffffffffffffffffffffffffffffff8261059b565b6105e2868361059b565b95508019841693508086168417925050509392505050565b6000819050919050565b600061061f61061a61061584610230565b6105fa565b610230565b9050919050565b6000819050919050565b61063983610604565b61064d61064582610626565b8484546105a8565b825550505050565b600090565b610662610655565b61066d818484610630565b505050565b5b818110156106915761068660008261065a565b600181019050610673565b5050565b601f8211156106d6576106a781610576565b6106b08461058b565b810160208510156106bf578190505b6106d36106cb8561058b565b830182610672565b50505b505050565b600082821c905092915050565b60006106f9600019846008026106db565b1980831691505092915050565b600061071283836106e8565b9150826002028217905092915050565b61072b82610264565b67ffffffffffffffff81111561074457610743610334565b5b61074e8254610545565b610759828285610695565b600060209050601f83116001811461078c576000841561077a578287015190505b6107848582610706565b8655506107ec565b601f19841661079a86610576565b60005b828110156107c25784890151825560018201915060208501945060208101905061079d565b868310156107df57848901516107db601f8916826106e8565b8355505b6001600288020188555050505b50505050505056fea26469706673582212203d48a591de7d3ce737d80a7361891c973633b49e563223438326143795d0769164736f6c63430008110033",
  "immutableReferences": {},
  "source": "// SPDX-License-Identifier: MIT\npragma solidity >=0.4.22 <0.9.0;\n\ncontract SmartContract {\n  \n  struct Info {\n      string name;\n      string addres;\n      uint256 phone;\n  }\n  Info info;\n  \n   function setName(string memory _name,string memory _addres, uint256 _phone) public {   \n          info.name=_name;\n          info.addres=_addres;\n          info.phone=_phone;\n         }\n    \n    function getName()public view returns(string memory){\n      return info.name;\n      \n    }\n    function getAddres()public view returns(string memory){\n      return info.addres;\n      \n    }\n    function getphone()public view returns(uint256){\n      return info.phone;\n      \n    }\n}\n",
  "sourcePath": "E:\\setName\\backend\\contracts\\SmartContract.sol",
  "compiler": {
    "name": "solc",
    "version": "0.8.17+commit.8df45f5f.Emscripten.clang"
  },
  "schemaVersion": "3.4.10",
  "updatedAt": "2022-09-26T06:01:30.658Z",
  "networkType": "ethereum",
  "devdoc": {
    "kind": "dev",
    "methods": {},
    "version": 1
  },
  "userdoc": {
    "kind": "user",
    "methods": {},
    "version": 1
  }
}